:400000000080002011000000650500006505000008B5044B1A6803F53F5302331A6000F0C1FA00BFFA46004010B5054C237833B9044B13B10448AFF300800123237010BDE8
:400040007881FF1F0000000078180000084B10B51BB108490848AFF300800848036803B910BD074B002BFBD0BDE81040184700BF000000007C81FF1F78180000C880FF1F82
:400080000000000070B584B062B600F0F7FC00F0EFFD00F01BFF0021084600F0FDFC614800F092FC4FF47A7000F0B4FB012000F099FC0021084600F0EFFC00231A465A49A5
:4000C000684600F0B5FF684600F07EFC0021084600F0E4FD0021084600F00EFF0024254600F0BCFA98B9642000F094FB012000F079FC0021084600F0CFFC013523462A46A2
:400100004949684600F094FF684600F05DFC00F0ADFAA0BB642000F07DFB012000F062FC0021084600F0B8FC3B2C01DD01350024013423462A463C49684600F079FF6846AF
:4001400000F042FC092C08DC0021084600F0A6FD0021E0B200F0D0FE11E0344E86FB0436E317C3EBA6060021F0B200F097FD06EB86067000201A0021C0B200F0BDFE322045
:4001800000F048FB00F06AFA0028A9D000F06EFA0028A5D0002C01DC002DA1DD4FF47A7000F038FB84B9002D9ADD013D012000F019FC3B232A461C49684600F039FF684622
:4001C00000F002FC3B248BE7002C89DD013C012000F008FC23462A461349684600F028FF684600F0F1FB092C08DC0021084600F055FD0021E0B200F07FFE71E70B4E86FBBC
:400200000436E317C3EBA6060021F0B200F046FD06EB86067000201A0021C0B200F06CFE5EE700BF7C1800008818000067666666FEE700BFF0B40022174611E050F82760CE
:40024000F3B226F0FF0608E001EB420511F812406D78A5550132013BDBB2002BF4D101371D2FEBD9F0BC7047064B1B78DBB203F00701054A11701B09013213704422034B08
:400280001A707047CF0100496E5800407658004008B50A46002100F0C2FE08BD38B545F6BF522A4B1A80182329490B7002310A8002310B7002310A8002310B7002310A802A
:4002C000244A13700222244B1A7008224FF040231A70032103F500731970204B1B78DBB21F490B701F4B1A8041F25122023B1A80002419250CE01C4B1B7803F0010343EA27
:40030000440404F003044FF4F07000F041FE013D0DB1032CEFD115B90320FFF789FF134B4FF480721A8007221A70002210490A704820023108701A700222033B1A700D4A99
:40034000137843F00F03137038BD00BF80400040824000408E4000400043004008010049A146004022420040254200400440004006400040A243004008B500F045FE08BD3B
:4003800038B572B64D4A137843F00403137000240CE04B4D630019194A0011462A44084691882858FFF774FF0134E4B2042CF0D944494FF09040FFF73DFF04214248FFF776
:4003C00067FF042241494248FFF7D6FF042241494148FFF7D1FF042240494148FFF7CCFF042240494048FFF7C7FF04223F494048FFF7C2FF04223F493F48FFF7BDFF0422AD
:400400003E493F48FFF7B8FF3E4A137843F0020313701032137843F0020313703A4C237843F040032370A2F58632513A137843F010031370082235493548FFF79DFF082272
:4004400034493548FFF798FF0A2234493448FFF793FF082233493448FFF78EFF082233493348FFF789FF082232493348FFF784FF082232493248FFF77FFF082231493248BA
:40048000FFF77AFF0A2231493148FFF775FF314A137843F0080313702F4D61232B70FFF7FDFE81232B7001222C4B1A70FFF7DCFE0E2221462A48FFF75FFF38BDE8460040FE
:4004C000901800007800004800760040A804004808760040AC04004810760040B004004818760040B404004820760040B804004828760040BC04004830760040C0040048F2
:400500003876004003500140A0430040580400480251004060040048C251004068040048F051004074040048125100407C0400482251004084040048325100408C04004862
:400540004251004094040048525100409C04004860510040224300400048004004000840B043004008B500F023FD03680C2B00D1FEE7FEE708B5094B1A681044084BC31A3F
:40058000802B02DC054B186005E000F011FD0C2303604FF0FF32104608BD00BFCC80FF1FE081FF1F08B5104E104D16E029686B68AC68002204E051F8040B43F8040B04327E
:4005C000A242F8D1E868002203E0002143F8041B04328242F9D11035013E002EE6D100F0EDFCFFF74FFDFEE7010000006C1D000008B5114A114B1A60114A136843F4007359
:40060000136000230AE0032B03D80E4A52F8231000E00D490D4A42F8231001332F2BF2D90B4B1A780B4B1A70084A0B4B1A60FFF7A7FE00F023F808BD0004FA050CED00E0D8
:4006400014ED00E000000000650500000080FF1FBC760040C080FF1F08ED00E0024B1878C0F34000704700BF61510040024B1878C0F34010704700BFF15100400B4A7F23E5
:4006800013708021517007E0DA0002F1804202F5F042013BDBB21370002BF5D1DB0003F1804303F5F04300221A707047D080FF1F172815D831B103010A495A5C42F020027C
:4006C0005A5405E0030107495A5C02F0DF025A540001044A835C43F00103835400207047012070471070004017280BD80001064A835C03F0F103490001F00E01194381547E
:4007000000207047012070471070004041F6FF73994201D14FF4005141F6FF739A4201D14FF40052172808D8C00000F1804000F5EC408180C280002070470120704700BF12
:40074000172805D8034B03EB0010417200207047012070471070004017281BD810B4C00000F1804404F5EC44D201D2B201F07F01114321709DF804201201D2B203F00F0359
:40078000134363709DF8083003F00F03A3700020E07001E00120704710BC704710B500F0FFFB0A4B5B78182B0BD9084A1478013B5370E30003F1804303F5F0431B781370C9
:4007C00000E0FF2400F0F0FB204610BDD080FF1F10F0800F0CD111F4704F0BD1C00000F1804000F5F04001808270C37000207047012070470120704710F0800F08D1C00083
:4008000000F1804000F5F0408180C280002070470120704710B5044605E0084B186800F0B7FBA4F50044B4F5004FF6D8034B586800FB04F000F0ACFB10BD00BFD880FF1F4E
:4008400008B5034B1B7A00FB03F000F0A1FB08BDD880FF1F10B50B4C237803F09F032370237803F0F00323702378184340F0100020700120FFF7E4FF237803F0EF0323705D
:4008800010BD00BF2051004038B505460E4C237843F020032370237803F0BF0323700020FFF7CEFF237803F0F003237023781D4345F0100525700120FFF7C2FF237803F0CB
:4008C000EF03237038BD00BF2051004070B5354B1A7802F08002D2B21A7033490A7802F0F00242F00F020A7001310A7802F0F0020A7001310A7802F0F0020A701A7802F00E
:40090000DF021A701A7842F040021A704FF4CA760020FFF795FF234D2B7843F010032B700120FFF78DFF214B1C78E4B22B7803F0EF032B700020FFF783FF04F00804E4B211
:400940002B7843F010032B700120FFF779FF2B7803F0EF032B7014B90A20FFF771FF013E0CB1002ED4D10F4A137803F0BF031370137803F08003DBB213700232137803F036
:40098000F00313700132137803F0F00343F00F0313700132137803F0F00343F00F03137070BD00BF20510040225100402151004010B50446FFF78AFF2009FFF765FF04F0E2
:4009C0000F00FFF761FF10BD38B505460078012404E0FFF7EDFF285D0134E4B20028F8D138BD00BF10B50446FFF770FF2009FFF731FF04F00F00FFF72DFF10BD08B528207B
:400A0000FFF708FF0320FFF725FF0520FFF702FF0320FFF71FFF0F20FFF7FCFE0320FFF719FF0120FFF7F6FE0220FFF713FF0520FFF7F0FE0620FFF7D5FF0E20FFF7D2FFB6
:400A40002C20FFF7CFFF0820FFF7CCFF0120FFF7C9FF0C20FFF7C6FF0320FFF7C3FF0520FFF7D8FE08BD00BF08B50C20FFF7BAFF0122014B1A7008BD9481FF1F08B5054BD1
:400A80005B7823B9FFF7BAFF0122024B5A70FFF7EBFF08BD9481FF1F08B5032819D8DFE800F002070D1381F08000FFF79BFF08BDA1F14000C0B2FFF795FF08BDA1F16C0036
:400AC000C0B2FFF78FFF08BDA1F12C00C0B2FFF789FF08BD10B54FF4804341F6FF720121084600F0E9F8424B1870FF2808D13FE0FFF754FE3E4B234418710134E4B200E074
:400B00000024072CF4D9002419E014F0010F0AD1374A1019631C1A440523127901210079FFF756FE09E0324A1019631C1A440123127919460079FFF74BFE0134E4B2062C38
:400B4000E3D92B48012302791946C07AFFF740FE00240BE0264B23442649214446F2795289B21879FFF748FE0134E4B2072CF1D94FF4804341F6FF720121084600F0BAF88C
:400B80001B4B1873FF2808D110BDFFF707FE184B234418740134E4B200E00024032CF4D900230AE0124AD0185C1C22440523127C0121007CFFF70CFEE3B2022BF2D90C48F7
:400BC0000523027C0121C07CFFF702FE00240BE0074B23440849214446F2755289B2187CFFF70AFE0134E4B2032CF1D910BD00BF9881FF1FE880FF1FD081FF1F10B5094C1B
:400C000021792078FFF79CFD217C207BFFF798FD01212078FFF74CFD0121207BFFF748FD10BD00BF9881FF1F08B5FFF7E7FF0122014B1A7508BD00BF9881FF1F002304E023
:400C4000FF21034AD1540133DBB2032BF8D97047D081FF1F08B5FFF7F1FF044B5B7D23B9FFF738FF0122014B5A7508BD9881FF1F08B5054B9B7D23B9FFF7ECFF0122024B9D
:400C80009A75FFF7D1FF08BD9881FF1F00F00F00014B185C704700BFB0180000092808D8032906D810B50C46FFF7F0FF014B185510BD7047D081FF1FF0B583B016461F460A
:400CC0000B4C062525700023019300932B460A4601462846FFF740FD3A4631462078FFF715FD02212078FFF7FFFC207803B0F0BDF880FF1FF0B583B016461F460B4C0725FD
:400D000025700023019300932B460A4601462846FFF722FD3A4631462078FFF7F7FC02212078FFF7E1FC207803B0F0BDF980FF1F10B54FF4804341F6FF720121084600F0E1
:400D4000E9F8424B1870FF2808D13FE0FFF726FD3E4B234418710134E4B200E00024072CF4D9002419E014F0010F0AD1374A1019631C1A440523127901210079FFF728FD01
:400D800009E0324A1019631C1A440123127919460079FFF71DFD0134E4B2062CE3D92B48012302791946C07AFFF712FD00240BE0264B23442649214446F2775289B2187940
:400DC000FFF71AFD0134E4B2072CF1D94FF4804341F6FF720121084600F0BAF81B4B1873FF2808D110BDFFF7D9FC184B234418740134E4B200E00024032CF4D900230AE0A7
:400E0000124AD0185C1C22440523127C0121007CFFF7DEFCE3B2022BF2D90C480523027C0121C07CFFF7D4FC00240BE0074B23440849214446F2765289B2187CFFF7DCFCA6
:400E40000134E4B2032CF1D910BD00BFB081FF1FFC80FF1FD481FF1F10B5094C21792078FFF76EFC217C207BFFF76AFC01212078FFF71EFC0121207BFFF71AFC10BD00BF67
:400E8000B081FF1F08B5FFF7E7FF0122014B1A7508BD00BFB081FF1F002304E0FF21034AD1540133DBB2032BF8D97047D481FF1F08B5FFF7F1FF044B5B7D23B9FFF738FF23
:400EC0000122014B5A7508BDB081FF1F08B5054B9B7D23B9FFF7ECFF0122024B9A75FFF7D1FF08BDB081FF1F00F00F00014B185C704700BFE01A0000092808D8032906D81B
:400F000010B50C46FFF7F0FF014B185510BD7047D481FF1FF0B583B016461F460B4D00242C700194009423460A4601462046FFF713FC3A4631462878FFF7E8FB022128788D
:400F4000FFF7D2FB287803B0F0BD00BF0C81FF1FF0B583B016461F460B4C012525700023019300932B460A4601462846FFF7F4FB3A4631462078FFF7C9FB02212078FFF7FA
:400F8000B3FB207803B0F0BD0D81FF1F000000000230800803D000BF01380046FCD17047EFF3108072B6704780F31088704700BF014B1868704700BF7081FF1F0E4B70B5EF
:400FC0001E460E4C0025E41AA410A54204D056F8253098470135F8E700F0B6FE084B094C1E46E41AA4100025A54204D056F8253098470135F8E770BD541D0000541D000022
:40100000541D00005C1D000010B5431E0A44914204D011F8014B03F8014FF8E710BD03460244934202D003F8011BFAE7704700000EB400B54FF402719CB0ADF814106FF0D9
:401040000041049107914FF6FF711DAB02900690084853F8042BADF81610006802A9019300F064F8029B00221A701CB05DF804EB03B070477081FF1F2DE9F0478E688246F8
:401080009E420C46914698463ED88A8912F4906F3AD02568096902236F1A656905EB450595FBF3F57B1C43449D4238BF1D4653050FD5294600F040FB064698B13A46216918
:4010C000FFF7A2FFA38923F4906343F08003A38113E02A4600F08EFB064670B92169504600F0DEFA0C23CAF80030A3894FF0FF3043F04003A381BDE8F08726613E44266010
:4011000046466561ED1BA560464528BF464649463246206800F0A8FAA36800209B1BA36023681E442660BDE8F08700002DE9F04F9DB003938B8980461C060D4616460DD5F9
:401140000B695BB9402100F0F7FA2860286118B90C23C8F80030CDE040236B610023099320238DF82930DFF89CB130238DF82A3037463C4614F8013B1BB9B7EB060910D0E6
:4011800003E0252BF9D02746F3E74B46324629464046FFF771FF013000F0A780099B4B4409933B78002B00F0A08000234FF0FF3204930793059206938DF853301A930126B3
:4011C000052221784E4800F041FA671C049B38B14B4A3C46801A06FA00F018430490EFE7D90644BF20228DF853201A0744BF2B228DF8532022782A2A03D0079A00210A20CB
:401200000BE0039A111D12680391002A10DA524243F00200079204900BE027463B780134303B092B03D800FB02320121F5E701B107923B782E2B1ED17B782A2B0AD1039BF2
:4012400002371A1D1B680392002BB8BF4FF0FF33059310E0002319460593781C0A2407463A780130303A092A03D804FB01210123F5E703B1059103223978224800F0E6F94D
:4012800040B14023CBEB000003FA00F0049B013718430490397806221B487E1C8DF8281000F0D4F988B1194B33B9039B073323F007030833039314E003AB00932A46144BCE
:4012C00004A94046AFF3008007E003AB00932A460F4B04A9404600F093F8B0F1FF3F824603D0099B5344099342E7AB895B0601D4099801E04FF0FF301DB0BDE8F08F00BF75
:40130000121D0000181D00001C1D000000000000791000002DE9F04791461F460A698B6806469342B8BF1346C9F8003091F843200C46DDF8208012B10133C9F80030236890
:40134000990642BFD9F800300233C9F80030256815F0060510D104F1190A07E00123524639463046C04701301AD00135E368D9F800209B1A9D42F1DB94F8433022680033C8
:4013800018BF012392060FD5E118302081F843005A1C94F845102244023382F8431003E04FF0FF30BDE8F08704F1430239463046C0470130F4D02268D9F80050E36802F072
:4013C0000602042A08BF5D1B2269A3680CBF25EAE57500259342C4BF9B1AED184FF000091A344D4509D00123224639463046C0470130D5D009F10109F3E70020BDE8F087FE
:401400002DE9F04317460A7E85B06E2A984606460C460C9B01F1430E00F0AE8011D8632A22D009D8002A00F0BB80582A40F0CA8081F84520834955E0642A1ED0692A1CD0B9
:40144000C0E0732A00F0B08009D86F2A2ED0702A40F0B8800A6842F020020A603EE0752A24D0782A3AD0ADE01A6801F14205111D1960136884F84230A8E021681A6811F01C
:40148000800F02D0111D196008E011F0400F02F10401196002D0B2F9003000E01368002B3CDA2D225B4284F8432037E021681A6811F0800F02D0111D196007E011F0400F05
:4014C00002F10401196001D0138800E01368227E5C496F2A14BF0A2208221BE078225A4984F845202268186812F0800F00F104051D6003D1550601D5038800E00368D007D0
:4015000044BF42F0200222601BB9226822F0200222601022002084F8430001E049490A226568002DA56008DB206820F0040020602BB9002D7DD175460CE0002B79D07546DB
:40154000B3FBF2F002FB1033CB5C05F8013D03460028F5D1082A0BD12368DA0708D5236962689A42DEBF302305F8013C05F1FF35C5EB0E0323612EE008681A6810F0800F51
:40158000496903D0101D1860136808E010F0400F02F104001860136801D0198000E0196000232361754616E01A68111D1960156800216268284600F049F808B1401B606046
:4015C000636804E004F1420584F8422001232361002384F84330CDF800803B4603AA21463046FFF797FE013002D14FF0FF3026E023692A4639463046C0470130F5D023689C
:401600009B0710D5002504F1190907E001234A4639463046C0470130E7D00135E368039A9B1A9D42F2DBE068039B9842B8BF184605E00B7804F1420584F842308AE705B09C
:40164000BDE8F083231D0000341D000010B5C9B202449042034605D01C7801308C42F8D1184610BD002010BD884210B501EB020301D8421E0BE09842FBD28118D21AD342F2
:4016800004D013F8014D01F8014DF8E710BD994204D011F8014B02F8014FF8E710BD000038B50546002944D051F8043C0C1F002BB8BFE41800F0D4F81E4A1368114613B987
:4016C0006360146030E0A3420DD92268A018834201BF18685B681218226063600C6023E0A24203D813465A68002AF9D118681918A1420BD12168014458188242196013D153
:4017000010685268014419605A600DE002D90C232B6009E021686018824201BF106852680918216062605C602846BDE8384000F098B838BDCC81FF1F70B5CD1C25F0030567
:4017400008350C2D38BF0C25002D064601DBA94202D90C23336046E000F082F8234B1C681A462146A1B10B685B1B0ED40B2B03D90B60CC18CD501EE08C420BBF63684B68F6
:401780001360636018BF0C4615E00C464968E9E7174C23681BB9304600F052F820602946304600F04DF8431C18D0C41C24F00304A0420DD12560304600F053F804F10B00BE
:4017C000231D20F00700C31A0ED05A42E25070BD211A304600F034F80130EBD10C233360304600F03EF8002070BD00BFCC81FF1FC881FF1FF8B5074615460E4621B911460C
:40180000BDE8F840FFF798BF1AB9FFF749FF2846F8BD00F027F885420ED929463846FFF78BFF044650B131462A46FFF7EDFB31463846FFF735FF01E03046F8BD2046F8BDCA
:4018400038B5064C0023054608462360FEF792FE431C02D1236803B12B6038BDD881FF1F7047704751F8040C0028BEBF091851F8043CC018043870470000000057656C6391
:401880006F6D65210000000025643A256400000000000140001000140140000800400140000A004C014000020050014020000000C0F9A4B0999282F880908883C6A1868EB9
:4018C000FFFFFFFFFFFFFFFFFFFFFFFFFFBF7FFFC0F9A4B0999282F88090FFFFFFB7FFFFFF8883A7A1868EC28BEFE189C7AAABA38C98AF9287E3E3E28991A4FFFFFFFFF734
:40190000FF8883A7A1868EC28BEFE189C7AAABA38C98AF9287E3E3E28991A4FFFFFFFFFFDBFFFFFFFFFFFFFFFFFFFFEDFFEDFFFFC0F92430191202F800100870C6F0060E63
:40194000FFFFFDFFFFFFFFFFF3DEC0FFDFFFFFFFDBFFFFFFFFFFFFFFFFFFFFFFFFFFFFEFFFFFEDFFEDFFFFFFFFEDFFF3FFFAF6FFFFF7F7FFEDFFDBD7D2EADBFFFFFFFFFF8D
:40198000FFFFFFFFFFFFFFFFFFEFFFF3EDEFFFFFFFF7FFFFEDFFDFEFD2EADBFFFFFFFFFFFFCFDFFFFFFFFFDFFFFF3FFFFF3FFFFFC0F92430191202F80010FFFFFF37FF7C44
:4019C000FF0870C6F0060E4209F6E18FC7C9C9C00CC00C12FEC1CFC9FFFFF6FFFFFFFFF7FF08032721060E100BFFE18FFF2B2B230CC02F123FE3EFE3FFFFF6FFFFFFFFFF5C
:401A00006FFFFCFCFCFCFCFFFCFCFCB5FFB7FCFC00F388C0734404F0007030C00CC00C3CFFFFF7FFFFFFFFFFCF7B00FF7FFCFFFF6FFFFCFCFCFCFCFFFCFCFFFFFFFCFFBDE4
:401A4000FFFCB5FFB7FCFCFDFCB7FFCEFFEBDBFFFCDFDCFCB7FF6F5F4BAB6FFFFFFFFFFFFFBEBEFEB67EB4B6BEBFB795B7BCBCBEF6B6BDDDB4BF7FBF4BB67EFFFFFFFFFFF2
:401A8000FF3F7FFFFFFFFF7FFFFFFFFFFFFFFFFF00F388C0734404F00070FFFFFFCFFFF8FF30C00CC00C3C0433CC833F0F33330038003844FC033F33FFFFCCFFFFFFFFCFE6
:401AC000FF8F1F9F9F9FFD5E3FFFDFFFFFB7F79F3E6EFFEFFF8FBF87FF5FDFFFFFFFFFFFC0F9A4B0999282F880908883C6A1868EFFFFFFFFFFFFFFFFFFFFFFFFFFBF7FFF7B
:401B0000C0F9A4B0999282F88090FFFFFFB7FFFFFF8883A7A1868EC28BEFE189C7AAABA38C98AF9287E3E3E28991A4FFFFFFFFF7FF8883A7A1868EC28BEFE189C7AAABA356
:401B40008C98AF9287E3E3E28991A4FFFFFFFFFFDBFFFFFFFFFFFFFFFFFFFFEDFFEDFFFFC0F92430191202F800100870C6F0060EFFFFFDFFFFFFFFFFF3DEC0FFDFFFFFFF8A
:401B8000DBFFFFFFFFFFFFFFFFFFFFFFFFFFFFEFFFFFEDFFEDFFFFFFFFEDFFF3FFFAF6FFFFF7F7FFEDFFDBD7D2EADBFFFFFFFFFFFFFFFFFFFFFFFFFFFFEFFFF3EDEFFFFFFB
:401BC000FFF7FFFFEDFFDFEFD2EADBFFFFFFFFFFFFCFDFFFFFFFFFDFFFFF3FFFFF3FFFFFC0F92430191202F80010FFFFFF37FF7CFF0870C6F0060E4209F6E18FC7C9C9C0A9
:401C00000CC00C12FEC1CFC9FFFFF6FFFFFFFFF7FF08032721060E100BFFE18FFF2B2B230CC02F123FE3EFE3FFFFF6FFFFFFFFFF6FFFFCFCFCFCFCFFFCFCFCB5FFB7FCFC74
:401C400000F388C0734404F0007030C00CC00C3CFFFFF7FFFFFFFFFFCF7B00FF7FFCFFFF6FFFFCFCFCFCFCFFFCFCFFFFFFFCFFBDFFFCB5FFB7FCFCFDFCB7FFCEFFEBDBFFB3
:401C8000FCDFDCFCB7FF6F5F4BAB6FFFFFFFFFFFFFBEBEFEB67EB4B6BEBFB795B7BCBCBEF6B6BDDDB4BF7FBF4BB67EFFFFFFFFFFFF3F7FFFFFFFFF7FFFFFFFFFFFFFFFFF1F
:401CC00000F388C0734404F00070FFFFFFCFFFF8FF30C00CC00C3C0433CC833F0F33330038003844FC033F33FFFFCCFFFFFFFFCFFF8F1F9F9F9FFD5E3FFFDFFFFFB7F79F87
:401D00003E6EFFEFFF8FBF87FF5FDFFFFFFFFFFF4300232D302B2000686C4C0065666745464700303132333435363738394142434445460030313233343536373839616259
:401D40006364656600000000F8B500BFF8BC08BC9E4670474D000000F1050000F8B500BFF8BC08BC9E46704729000000801D0000C880FF1FB000000068000000000000004C
:401D800000000000E081FF1F7F800000FF0000000000E02EC05D00001800000000366E01FFFEFFFDFFFBFFF7FFEFFFDFFFBFFF7FFFFF0000FFFEFFFDFFFBFFF7FFEFFFDF1A
:401DC000FFBFFF7FFFFF00000000000000000000000000000000000000000000000000000000000000000000101D000000000000000000000000000000000000000000007C
:401E0000000000000000000000000000000000000000000000000000000000000000000000000000000000001081FF1F0000000000000000000000000000000000000000F3
:401E40000000000000000000000000000000000000000000000000000000000000000000000000000000000000000000000000000000000000000000000000000000000062
:401E80000000000000000000000000000000000000000000000000000000000000000000000000000000000000000000000000000000000000000000000000000000000022
:401EC00000000000000000000000000000000000000000000000000000000000000000000000000000000000000000000000000000000000000000000000000000000000E2
:401F000000000000000000000000000000000000000000000000000000000000000000000000000000000000000000000000000000000000000000000000000000000000A1
:020000040003F7
:0200000480007A
:400000000F5200400201014003030140040501400E0701400C090140090B0140070D0140020F01400B140140281501400B1601401F1701400B1801401E1901400B1A0140A9
:40004000251B014020400140224101400F42014013430140094401400A45014008460140054701401948014029490140114C01401D4D01400251014000AC013A083409A059
:400080001080189A193C2055216628CC299A30C8316C608061C08601E44084049602E80281409602A404E64080108701958096029E08A220A404AA08B220E004E208E61067
:4000C000E820EA0187028C089240961097049F10A202A401A588A908E004E61084018E108F1092409704A202A580E408E640858087049240A202AE02E002E4028E40E440B3
:400100005B045F0189028B0199019B02B503BF10D904DB04DF01252034103F20680469806A026B106C106F4A7408768877018B0A8C208F5094209580960298109E889F0155
:40014000A020A310A40CA520A940AB10AE40AF0CB010B130B380B480CC20CE20E254E653E824EC04EEA019011B0229022B0135033F1059045B045F01DB04DF0127082F041D
:400180003620688069506B206C046E806FA0742076207782872088088E208FA29428958096029E889F01A220A404B404B680CA20CC20E252E404E662EA140102030111013F
:4001C000130233033F0459045B045F01DB04DF01271036023E0268406A806B246EA46F8074017584770882428654870892409420961097049F12A202A409A588A702A81054
:40020000AF02CC80CE80E008E419EC125B045F018402860190019202B203BE04D804DB04DF0104040E401D0869026A206B126C186F42718072107344835087408E10900475
:40024000924094209502961097049F02A408A588A702A804A904AB04B040B181B7A0C020C210E020E240E480E881EC4510081304161017101A801B801C081E803B043C01BB
:400280003E404110531054025510581059045D01620466016808692087108F10C4F0C6F0CEE0D010D4E0D6E0D8C0E6403A083E013F1043805310550858025B405D085F8086
:4002C0006080674084109401950196409A089C109D049E05A004A240A380A402A510AE10B648CEE0D010D4E0D6E0D8C0E640E84081108E4094019501964197709C829D0C83
:400300009E059FC0A004A240A402A518E280850187808E049501960197709C829D0C9E059F80A004A402A508A801AB40B240E250EA80EE80501058105B025F4061026684FC
:40034000D405D607D8035D0285028702942097409C109E849F02A502D60185028E80942097409C109D029E84E4088010942097409C109E0420102680271080018440850844
:40038000871089088C028D018F01960197709C809D0CA004A402A508AA01B402C8E0E240E420E650EA2018025110544058225E4061016604670273408104824087408CA255
:4003C0008E04912093029402980299019C809D04A040A402A810AB10AE80AF50B004B110B201C640D4E0D6E0D8C0DC80E220E6C0E820EA10EC90EE40572058045C086320DE
:4004000067108220840487208F019740AC10B604D402D603D803E408EC08522055085B205F81630A65017B027E018A018B02930199019BA0A108A220A305AB34B3D1B40881
:40044000B509D407D607D803DC01DE04E004E401E807EC0F10AA11AA00FFFF00FF00000000C1C100C100000020000020000000000000000000FFFF00F400000000FFFF00D4
:400480008000000000FFFF00FF00000000FFFF00FF00000000FFFF00FF000000020000FFFD00FD0000000000000100000002000000030000000400000005000000060000B5
:4004C00000070000000000000000000000000000000000000000000000000000000000000000000000000000000000000000000000000000000000000000000000000000F5
:4005000000000000000000000000000000000000000000000000000000000000000000000000000000000000000000000000000000000000000000000000000000000000BB
:40054000000000000000000000000000000000000000000000000000000000000000000000000000000000000000000000000000000000000000000000000000000000007B
:40058000000000000000000000000000000000000000000000000000000000000000000000000000000000000000000000000000000000000000000000000000000000003B
:4005C00000000000000000000000000000000000000000000000000000000000000000000000000000000000000000000000000000000000000000000000000000000000FB
:0200000490006A
:0400000000004005B7
:0200000490105A
:04000000BC90ACAF55
:0200000490303A
:02000000BDA899
:0200000490402A
:4000000000000000000000000000000000000000000000000000000000000000000000000000000000000000000000000000000000000000000000000000000000000000C0
:400040000000000000000000000000000000000000000000000000000000000000000000000000000000000000000000000000000000000000000000000000000000000080
:400080000000000000000000000000000000000000000000000000000000000000000000000000000000000000000000000000000000000000000000000000000000000040
:4000C0000000000000000000000000000000000000000000000000000000000000000000000000000000000000000000000000000000000000000000000000000000000000
:0200000490501A
:0C00000000012E12306900012E20EE11CC
:00000001FF